:100000000C9434090C9453090C9453090C9453091F
:100010000C9453090C9453090C9453090C945309F0
:100020000C9453090C9453090C9453090C945309E0
:100030000C9453090C9453090C9453090C945309D0
:100040000C9453090C9453090C9453090C945309C0
:100050000C9453090C9453090C9453090C945309B0
:100060000C9453090C9453090C9453090C945309A0
:100070000C9453090C9453090C9453090C94530990
:100080000C9453090C9453090C945309000020015B
:100090000060C0A01180053A0103260104F20101AD
:1000A000E00F3F251C1E20122A90241100000000A2
:1000B00000E10F20202020050015A73D18252A2B40
:1000C0002B3AB1021114B40107C0020A02C10102A5
:1000D000C502505BC701402A040000007F2B0400CA
:1000E00000007F36010829002C00000000000000FD
:1000F000002108401080529400000052BEA57D4AA5
:1001000023E8E297C46D7445D6C03288C9C9A010EF
:100110008800000011108420824104210888012AEF
:10012000EA90000109F2100000000010880001E0D0
:1001300000000000002100108844221064ADA9498D
:1001400080461084238064844443C06484C1498011
:1001500023194F1080F4382149806439294980F0EF
:100160008844210064A4C9498064A527098000103F
:1001700080210000108021101111041040003C0F5C
:10018000000082082222006484440100326759A0E2
:10019000C064A5E94A40E4A5C94B8064A108498030
:1001A000E4A5294B80F421C843C0F421C84200646F
:1001B000A169594094A5E94A40E210842380108443
:1001C00029498094A98A4A4084210843C08C77BA7F
:1001D000D62096B56B4A4064A5294980E4A5C8425B
:1001E0000064A5296982E4A5CA4A4064A0C1498087
:1001F000F90842108094A52949808C62A510808D51
:100200006BF729408A94452A208C54421080F0884C
:100210008443C0721084210E8410821042708421A5
:10022000084E22A2000000000000001F2104000070
:10023000000304E949C08535296A800325084980FF
:1002400012AD2959400325E84980323C842100033E
:10025000A529385C8535294A4026084210801304B8
:10026000210A4C84A98A4A40E10842108006AB5A10
:10027000D6A00535294A4003252949800535296A34
:100280009002AD2959420535084200032482498075
:1002900047908420C004A52959400454A510800427
:1002A000635AB9400454422A2004A529385C0784C3
:1002B0004443C032110421062108421084C108229F
:1002C00010980011510000207E050508EC00000088
:1002D00052656472617720746578742F696D672048
:1002E0002C313220426974002C3132204269740072
:1002F00000000000000000000000000000000000FE
:1003000000000000000000000000000000000000ED
:10031000001F1F1F1F1F1F1F1F1F1F1F1F1F1F1F0C
:100320001F18140904010000000000000000000074
:10033000001F18181818181818181818181818184E
:10034000181F1F1F0A04000000000000000000002A
:10035000001F18181818181818181818181818182E
:100360001817161F1F1104000500000000000000F0
:10037000001F17171717171717171817171817171A
:1003800017171817181F11040005000500050500B0
:10039000001F1717181717171817171717171717FA
:1003A0001717171717181F0A040505000500050081
:1003B000001F1717171717171717171717171717DC
:1003C0001717171717171818080205050505050050
:1003D000001F1616171717171717171717171717BE
:1003E000171717171617161F140405000500050028
:1003F000001F1D16161616161616161616161616A3
:1004000016161616161616171F09030505050501FB
:10041000001F1D16161E161616161E161616161672
:100420001E16161616161E1C1F14040505050500BB
:1004300000181E1E1E1E1E1E1E1E1E1E1E1E1E1E00
:100440001E1E1E1E1E1E1E1D161809010505050076
:10045000001F1D1D1D1D1D1D1D1D1D1D1D1D1D1DE7
:100460001D1D1D1D1D1D1D1D1A1F0A03050505004F
:1004700000181C1C1C1C1C1C1C1C1C1C1C1C1C1CDC
:100480001C1C1C1C1C1C1C1C1B1814030505050033
:1004900000181D1B1B1B1B1B1B1B1B1B1B1B1B1BC8
:1004A0001B1B1B1B1B1C1C1C1B131500050505001F
:1004B00000181B1B1B1B1B1B1B1B1B1B1B1B1B1BAA
:1004C0001B1B1B1B1B1B1B1B1B161E0505050500F1
:1004D00000181A1A1A1A1A1A1A1A1A1A1A1A1A1A98
:1004E0001A1A1A1A1A1A1A1A1A1D1E0900050600D3
:1004F00000181A19191A1A1A1A1A1A1A1A1A1A1A7A
:100500001A1A1A1A1A1A1A1A1A1C100900060501C0
:1005100000180D1919191919191919191919191971
:100520001919191919191919191B1D09000605009E
:1005300000131212121219121212121212121212A5
:100540001212121212121212121B1A0505050600BF
:10055000001312121212121212121212121212128C
:10056000121212121212121212130C0005060601B8
:100570000013120F0F0F120F0F0F0F0F0F0F0F0F90
:100580000F120F0F0F0F0F0F0F13110206060500AA
:1005900000130F0F0F0F0F0F0F0F0F0F0F0F0F0F76
:1005A0000F0F0F0F0F0F0F0F0F1309050605060092
:1005B00001130F0F0F0F0F0F0F0F0F0F0F0F0F0F55
:1005C0000F0F0F0F0F0F0F0E100C00050606060081
:1005D00000130E0F0E0F0E0F0E0F0E0F0F0F0F0E3C
:1005E0000F0E0F0E0F0E0F0E130A00060606060062
:1005F00000100E0E0E0E0E0E0E0E0E0E0E0E0E0E27
:100600000E0E0E0E0E0E0C10140206060606060145
:1006100000100C0E0E0E0E0E0E0E0E0E0E0E0E0E08
:100620000E0E0E0E0E0C0F1309000606060606002F
:1006300000100C0C0C0C0C0C0C0C0C0C0C0C0C0C02
:100640000C0C0C0C0C0B130A020606060606060020
:1006500000100B0C0C0C0C0C0C0C0C0C0C0C0C0CE3
:100660000C0C0C0C0B1311030606060606060600FE
:10067000000D0B0B0B0B0B0B0B0B0B0B0B0B0B0BD3
:100680000B0B0B0B100702060606060606060600F5
:10069000000D0B0B0B0B0B0B0B0B0B0B0B0B0B0BB3
:1006A0000B0B0D100A0306060606060606060600D4
:1006B00000130D0D0D0D0D0D0D0D0D0D0D0D0D0D71
:1006C0000D0D0B09000606060606060606060600C0
:1006D000000000000000000000000000000000001A
:1006E00000000100000005000500050005000500F0
:1006F00003000300020002000100040016017A0753
:100700001301250257058C088C08AD099C099C092A
:10071000AE0A7906AD09BE0B8B08AC0ABD0BBD0B4A
:10072000CE0CAD0AAD0AAD0AAD0ABD0ABD0BEF0E87
:100730000103010301020002000101041306780A0B
:10074000110323055507890C8A0C9B0D9A0C9A0CF2
:10075000AC0E67099B0DBC0E890BAB0CBC0DBC0D20
:10076000CD0EAB0DAB0DAB0DAB0DAC0DBC0DEF0F4E
:10077000004003004003004003004003004003002A
:1007800040030040030040030040030040030040DA
:100790000300400300400300400300400300400307
:1007A00000400300400300400300400300400300FA
:1007B0004003004003004003003CCEDDFDDFDDFDD3
:1007C000DFDDFDDFDDFDDFDDFDDFDDFDDFDDFDDFAD
:1007D000DDFDDFDDFDDFDDFDDFDDFDDFBBE88A22E6
:1007E00060020020040030040030040030040030B7
:1007F00004003004003004003004003004003004F1
:10080000004CCEDDECCECCECDECCECCEDCECCECCB9
:10081000EDCECCECDECCECCECCEDCECCECCECCED3B
:10082000DECCEDDEDDFFFFEEF99B11400100400460
:100830000040040040040040040040040040040064
:100840004004004004004003003CCECCECCEDDEC84
:10085000CEDDECDECCEDDFCCEDCEDDECCECCEDDFD5
:10086000CCEDDECCEDDECCECCEDCECCECCECCEDDDB
:10087000FFFFDDF23500100400400400400400409A
:100880000400400400400400400400400400400311
:10089000004CCECCECCECCECCECCECCECDECCECC59
:1008A000ECCECCECDECCECCECDECCECCECDECCEC9D
:1008B000DECDECDECCECCECCECCEEEFEEF33600148
:1008C00000400400400400400400400400400400D4
:1008D0004004004004004003003BBECCECCECDEC15
:1008E000CECDECCECCECCECCECDECCECCECCECDE7B
:1008F000CCECCECCECCECCECCECCECCECCECDECC7E
:10090000ECCECCEEEFEEF3360020040040040040C5
:100910000400400400400400400400400400400380
:10092000004BBECCECCECCECCECCECCECCECCECCDA
:10093000ECCECCECCECCECCECCECCECCECCECCEC2D
:10094000CECCECCECCECCECCECCECCECCEEEFDDFF7
:100950001140020040040040040040040040040034
:100960004004004004004004003BBDCCECCECCEC85
:10097000CECCECCECCECCECCECCECCECCECCECCE0B
:10098000CCECCECCECCECCECCECCECCECCECCECCFD
:10099000ECCECCECCEBBEEEFAAC00200400400408F
:1009A00004004004004004004004004004004004EF
:1009B000004BBDCCECCECCECCECCECCECCECCECC4B
:1009C000ECCECCECCECCECCECCECCECCECCECCEC9D
:1009D000CECCECCECCECCECCECCECCECCECCECCEAB
:1009E000EEF66800200501400401500401500400A7
:1009F0004015004005014004003BBDCCECBECBEBF4
:100A0000BECCEBBEBBEBBECCEBBEBBEBBECCEBBE01
:100A1000BBECCEBBEBBECCEBBEBBECCEBBEBBECCE3
:100A2000EBBEBBEBBEBBEBBEDDFCCE11400300500A
:100A3000040040040041150040040150040040043B
:100A4000004BBDCCEBBEBCEBCEBBECCEBCEBBECC0E
:100A5000EBBECCECCEBBECCEBBECCEBBECCEBCEB61
:100A6000BECCEBBECCEBBEBBECCECCEBCEBCEBCE6F
:100A7000BBEEEF78A00200511500411500400401C3
:100A80005004004115004004003BBDBBEBBEBBEB76
:100A9000BEBBEBBEBBEBBEBBEBCEBBEBBEBBEBBE94
:100AA000BBEBBEBBEBBEBBEBCEBBEBBEBCEBBEBC85
:100AB000EBBEBBEBBEBBEBBEBBECCFCCE22500304C
:100AC000040040140150040141140040041150037B
:100AD000004BBDBBEBBEBBECCEBBEBBEBCEBBEBBB1
:100AE000EBBEBBEBBEBCEBBEBBEBBEBCEBBEBBEB25
:100AF000BEBBEBBEBBEBBEBBEBBEBBEBBEBCEBBE43
:100B0000BBEBBEEEF6690020150041150040150054
:100B10004115004115004004003BBDBBEBBEBBEBE3
:100B2000BEBBEBBEBBEBBEBBEBBEBBEBBEBBEBBE13
:100B3000BBEBBEBBEBBEBBEBBEBBEBBEBBEBBEBB06
:100B4000EBBEBBEBBEBBEBBEBBEBBEDDFAAC00301D
:100B500004115004015005015004115004015003C8
:100B6000004BBDBBDBBDBBEBBEBBEBBEBBEBBEBB43
:100B7000EBBEBBEBBEBBEBBEBBEBBEBBEBBEBBEB96
:100B8000BEBBEBBEBBEBBEBBEBBEBBEBBEBBEBBEB3
:100B9000BBEBBDBBECCE336003005115004115002B
:100BA0005115004115005004003AADBBEBBEBBDB54
:100BB000BDBBDBBDBBEBBDBBDBBDBBDBBEBBDBBDC8
:100BC000BBDBBEBBDBBDBBEBBDBBEBBDBBDBBDBBAA
:100BD000DBBDBBEBBDBBDBBDBBDBBDBBDDDF558028
:100BE0000211500511500511500411500511500308
:100BF000004AADBBEBBDBBDBBDBBDBBDBBDBBDBBE7
:100C0000DBBDBBDBBDBBDBBDBBDBBDBBDBBDBBDB6A
:100C1000BDBBDBBDBBDBBDBBDBBDBBDBBDBBDBBD78
:100C2000BBDBBDBBDDDF77A0030051150050150015
:100C30005115005015005004003AADBBDBBDBBDBC5
:100C4000BDABDBBDABDABDBBDABDABDBBDABDABD8B
:100C5000ABDABDABDABDABDABDABDBBDABDABDBB8E
:100C6000DABDABDBBDABDBBDBBDABDBBDCCE99C057
:100C70000300511501501501500511511501500384
:100C8000004AADBBDABDAADABDABDAADBBDAADABBB
:100C9000DBBDABDABDABDABDABDABDBBDBBDABDA1E
:100CA000BDBBDAADBBDBBDAADBBDAADABDABDAAD3D
:100CB000ABDABDAADCCF99C0040050150051151164
:100CC0005005115005115003003AADBBDAADBBDA47
:100CD000ADABDABDAADBBDAADABDAADAADABDAAD3F
:100CE000ABDAADAADAADBBDAADABDABDAADABDAB31
:100CF000DAADBBDABDAADABDABDAADBBDCCE99C0EA
:100D000004004115115115015115115115015003E0
:100D1000004AADAADABDAADABDAADABDAADAADAB3D
:100D2000DABDABDABDAADBBDAADBBDABDABDAADAA0
:100D3000BDAADABDABDAADABDABDAADAADBBDAADCE
:100D4000ABDAADAADCCE99C00400511511500511E3
:100D50005015015115115003003AADAADAADAADAC7
:100D6000ADABDAADAADABDAADAADAADAADAADAADD0
:100D7000AADAADAADAADABDAADABDAADAADABDAAC2
:100D8000DAADABDAADAADABDAADABDAADBBE99C08C
:100D90000400511511511511511511511501500330
:100DA000004AADAADAADAADAADAADAADAADAADAADE
:100DB000DABDAADAADABDAADAADABDAADAADAADA43
:100DC000ADAADAADAADAADAADAADAADAADAADAAD81
:100DD000AADAADAADCCF89B0040151151151151161
:100DE0005115105115115003003AADAADAADAADA27
:100DF000ADAADAADAADAADAADAADAADAADAADAAD51
:100E0000AADAADAADAADAADAADAADAADAADAADAA43
:100E1000DAADAADAADAADAADAADAADAADCCF77A04C
:100E2000031151151151151151151151151150037F
:100E3000004AADAADAADAADAADAADAADAADAADAA4D
:100E4000DAADAADAADAADAADAADAADAADAADAADAD3
:100E5000ADAADAADAADAADAADAADAADAADAADAADF0
:100E6000AADAADAADCCF5580031161151151151115
:100E7000511511511511500400399CAADAADAADAA6
:100E8000ADAADAADAADAADAADAADAADAADAADAADC0
:100E9000AAD9ADAADAADAADAADAADAADAADAADAAB4
:100EA000DAADAADAADAADAADAADAADAADAAD225085
:100EB00004116116115115115115115116116003CC
:100EC00000499CAAD9AD99C9AD99D9AD99C9AD9937
:100ED000D9AD99C9AD99C99D9AD99C9AD99C9AD9ED
:100EE0009C99D9AD99D99D9AD99C9AD99C9AD99D0A
:100EF0009AD99CBBE88B003116116116115116115D
:100F0000611611611611500400399CAAD9AD9AD905
:100F10009DAAD99DAAD9AD9AD99DAAD9AD9AD9AD84
:100F20009ADAAD99DAAD9AD9AD9AD9AD9AD9AD9A86
:100F3000D9AD9AD9AD99DAAD9AD99DBCF4470031B3
:100F400016116116116116116115116116116003F8
:100F500000499C9AD99D99D99D99D9AD99C99D99D6
:100F6000D9AD99D99D99D99D99D99D99D99D99D94D
:100F70009D99D99D99D99D99D99D99D99D99D99D89
:100F800099DBBE99C0040151161161161161161149
:100F9000611611611611600400399C99D99D99D987
:100FA000AD99D99D99D99D99D99D99D9AD99D9AD29
:100FB00099D99DAAD99D9AD99D9AD9AD99D9AD991A
:100FC000D99D9AD99D9AD99D99DBBF44700311612F
:100FD0001611611611611611611611611611600367
:100FE00000499C99D99D99D99D99D99D99D99D9947
:100FF000D99D99D99D99D99C99D99D99C99D99D9DE
:101000009C99C99D99D99C99D99D99D99D99C99C1B
:10101000BBE88A00311611611611611611611611B3
:10102000611611611611600400399C99D99C99D9F7
:101030009D99D99D99D99D99D99D99D99D99D99DC8
:1010400099D99D99D99D99D99D99D99D99C99D99CC
:10105000D99D99D99C99DAADAAE225004126116162
:1010600026116126116116126126116116126004A3
:1010700000488C99D99D99C99C99C99C99C99C99FA
:10108000C99C99C99C99C99C99C99C99C99C99C9A1
:101090009C99C99C99C99D99C99C99C99C99DBBE89
:1010A0004470031161161261161161261161161246
:1010B000611611612611600300388C99D99C99C979
:1010C0009C99C99C99C99C99C99C99C99C99C99C8E
:1010D00099C99C99C99C99C99C99C99C99C99C9981
:1010E000C99C99C99CBBE669003116227116126130
:1010F00026116126126116226126116227127004E0
:1011000000489C99C99C99C99C99C99C99C99C996A
:10111000C99C99C99C99C99C99C99C99C99C99C910
:101120009C99C99C99C99C99C99C99CBBE66A003FE
:1011300011512711611612611612611612612611E2
:10114000611622611611600300388C99C88C89C819
:101150009C88C89C89C88C99C88C99C88C89C89C63
:1011600089C89C88C99C88C99C89C88C99C89C8856
:10117000C99DABE559003115227116126226126124
:10118000261262261161262261261262272270042D
:1011900000488C89C89C88C99C89C88C99C89C883F
:1011A000C99C88C99C88C89C88C99C89C88C99C8D6
:1011B0008C89C88C89C99DAAE99D33700311622767
:1011C0001161261261261261261261261261261211
:1011D000612611612612700300399DAAEAAEAAEABF
:1011E000AEAAEAADAADAAEAAEAADAAEAAEAAEAAE19
:1011F000AAEAADAAEAAEAAEAAEAAEAAEAAD99C6663
:10120000911500411722722722722722712722711D
:101210002722712722722722722722722722700426
:10122000004003004003004003004003004003006F
:10123000400300400300400300400300400300401F
:10124000030040030040030040030030040040035B
:10125000003003003003003003003003003003008F
:10126000300300300300300311241FBECFEFD0E461
:10127000DEBFCDBF11E0A0E0B1E0EEE9FFE100E0AC
:101280000BBF02C007900D92A639B107D9F721E034
:10129000A6E9B1E001C01D92A739B207E1F70E94AB
:1012A0004D0F0C94AF0F0C94000095B187FB20E21A
:1012B0009F7D93F995B986FB23B993F995B985FB81
:1012C00023B993F995B984FB23B993F995B983FBB5
:1012D00023B993F995B982FB23B993F995B981FBA9
:1012E00023B993F995B980FB23B993F995B980FB9C
:1012F00023B9089595B19F7D95B995B19B7F95B917
:1013000095B19D7F95B90E94550985B1826085B9D7
:1013100085B1846085B9089595B19F7D95B995B1E2
:101320009D7F95B90E94550985B1826085B9089560
:10133000DF92EF92FF920F931F93CF93DF9384B1CD
:10134000826084B984B1806184B984B1806284B9D7
:1013500084B1886084B984B1846084B985B18260C5
:1013600085B985B1806185B989EF90E00197F1F782
:1013700000C0000085B18F7E85B9E3EDF0E33197C1
:10138000F1F700C0000085B1806185B98FE295E773
:101390000197F1F700C00000C4E9D0E002C0DD20F1
:1013A000ECF09E012F5F3F4FFE018491882349F1AD
:1013B0002296F901D4901D2D1F770E947A090FEF14
:1013C000010F112361F37E01FFEFEF1AFF0AFE0107
:1013D00084910E948C09E701102FF1CF9E012F5FAD
:1013E0003F4FFE01C49107C0E9EFF0E03197F1F7FC
:1013F00000C00000C82F8FEF8C0FC111F5CFE9019D
:10140000D0CFDF91CF911F910F91FF90EF90DF90A0
:101410000895CF93C82F892F25B12F7D25B925B1E8
:101420002D7F25B90E9455098C2F0E94550985B141
:10143000826085B9CF910895CF93DF93C82FD0E014
:10144000FE01E457FF4FE491E093960186E30E948A
:101450007A09FE01E057FF4F849188600E948C0951
:10146000DF91CF9108950F931F93CF93DF93082FB0
:10147000D62F142FC22F8AE20E947A09209196015A
:10148000922F969596959695822F8295880F807EBD
:10149000800F911D0E94090A20919601922F969526
:1014A00096959695822F8295880F807E810F911D4B
:1014B0000E94090A8BE20E947A098091960180724B
:1014C0008D0F9927991F0E94090A809196018072B9
:1014D0008C0F9927991F0E94090A8CE20E947A09B1
:1014E000DF91CF911F910F910895DF92EF92FF92BC
:1014F0000F931F93CF93DF93E02FF12F8F0102956E
:101500001295107F1027007F1027AF2FBB270A2BC3
:101510001B2BDE2E429FE0011124D595C795260F87
:10152000480F215041500E94330A85B18F7D85B903
:1015300085B18D7F85B97E0181E0E81AF108CD2B58
:1015400059F0812F0E945509802F0E9455098D2D39
:101550000E945509E701EFCF85B1826085B9DF911F
:10156000CF911F910F91FF90EF90DF9008950F930F
:101570001F93082F192F20E840E860E080E00E94C8
:10158000750A1F910F910895CF92DF92EF92FF920B
:101590000F931F93CF93DF93C02FD12F429FF00162
:1015A00011248F01169507950E0F1F1F260F480F48
:1015B000215041500E94330A85B18F7D85B985B194
:1015C0008D7F85B97801F1E0EF1AF108012B59F010
:1015D0006E018FEFC81AD80AFE0184910E94550946
:1015E0008701E601EFCF85B1826085B9DF91CF91A8
:1015F0001F910F91FF90EF90DF90CF9008953F9251
:101600004F925F926F927F928F929F92AF92BF9212
:10161000CF92DF92EF92FF920F931F93CF93DF93BE
:10162000A82E462E642FC22E532E8E2C9F2CE40102
:101630002496FE012491240F3401F3E06F0E711CF7
:10164000F3014491440D21504150842D0E94330AEE
:10165000F4018491A81A52F1F4013196E4912E2FED
:1016600030E0F4018491281B31098A2D0A2C000CEA
:10167000990B281739070CF4A12CF4013296249108
:101680003A2D320350011124339685919491A80E7E
:10169000B91EF3013490FE01C4913C9E302C1124FC
:1016A000912C812CD0E0C0E0D12C17C0A12CD4CF3C
:1016B000EC2CF52C27C0C701929582958F70892755
:1016C0009F7089270E948C094701982C8824990CC7
:1016D000990C990C990CC695DF5FD315D8F4C111FC
:1016E00006C0C5010196F501D4905C01C0E830E068
:1016F0008D2D0D2C000C990B8C239323892BC1F677
:10170000E02EF12ED0FFD7CFC701882999290E945A
:10171000090AE1CFF3018491840DDF91CF911F91EC
:101720000F91FF90EF90DF90CF90BF90AF909F9080
:101730008F907F906F905F904F903F900895EF92C1
:10174000FF920F931F930F2EF7ECEF2EF2E0FF2E78
:10175000F02D0E94FF0A1F910F91FF90EF900895C6
:101760007F928F929F92AF92BF92CF92DF92EF9231
:10177000FF920F931F93CF93DF93B42E722E832E7D
:10178000902EA12ECE2CDF2C0BC07601092D1A2D08
:10179000272D382D4B2D0E94FF0A682F8C2F9D2F4F
:1017A000C82FD92F89918823A9F08D3011F08A3064
:1017B00061F7F60134968491B80E2B2D30E0E49158
:1017C00080E890E08E1B9109821793070CF4B12CEE
:1017D00060E0E4CF862FDF91CF911F910F91FF90B2
:1017E000EF90DF90CF90BF90AF909F908F907F90C1
:1017F0000895EF92FF920F931F930F2EF7ECEF2EA9
:10180000F2E0FF2EF02D0E94B00B1F910F91FF9080
:10181000EF9008957F928F929F92AF92BF92CF9256
:10182000DF92EF92FF920F931F93CF93DF93E82FF6
:10183000F92FB42E722E832E902EA12ECE2CDF2CBB
:101840000AC07601092D1A2D272D382D4B2D0E9407
:10185000FF0A682FFE01EF01219684918823A9F0E9
:101860008D3011F08A3069F7F60134968491B80E04
:101870002B2D30E0E49180E890E08E1B91098217D7
:1018800093070CF4B12C60E0E5CF862FDF91CF9168
:101890001F910F91FF90EF90DF90CF90BF90AF908E
:1018A0009F908F907F900895EF92FF920F931F93D8
:1018B0000F2EF7ECEF2EF2E0FF2EF02D0E940A0C17
:1018C0001F910F91FF90EF900895CF93DF93C42F56
:1018D000D52F262F482F0E94330ACE01829592954C
:1018E000907F9827807F98270E94090ADF91CF91E7
:1018F00008958F929F92AF92BF92CF92DF92EF9214
:10190000FF920F931F93CF93DF93B42EA22EC02F7D
:10191000D12FCE2CDF2C260F480F215041500E9492
:10192000330A85B18F7D85B985B18D7F85B910E08A
:1019300000E0812C8A2DAA94882309F43CC0912CC4
:101940001FC07E018FEFE81AF80AFE01C491EC2F48
:10195000F0E0EE0FFF1FEC0DFD1D85919491882E98
:10196000880C880C880C880C929582958F7089273A
:101970009F7089270E945509E7010F5F1F4F9394BD
:101980009B14C0F600FFDDCF7E018FEFE81AF80A46
:10199000FE01C491EC2FF0E0EE0FFF1FEC0DFD1DDA
:1019A000C591D4918D2A882D0E9455098C2F0E94B3
:1019B0005509E701E2CF85B1826085B9DF91CF910A
:1019C0001F910F91FF90EF90DF90CF90BF90AF905D
:1019D0009F908F900895FF920F931F93CF93DF9363
:1019E000C82FD92F862FF42E10E000E02FEF3FE014
:1019F00048E760E0805D0E949F0B682F2FEF3FE07B
:101A000048E780E38F0D0E949F0B682F209781F09D
:101A10000FEF1FE027E737E048E7CE010E94F90B00
:101A2000682F27E737E048E788EE92E00E94540CE1
:101A3000DF91CF911F910F91FF900895CF93DF9386
:101A4000CDB7DEB729970FB6F894DEBF0FBECDBF76
:101A50000E94980983E00E941C0A8FEF9FE00E9479
:101A6000B70A912C812C1986712C0F2EF4E6AF2E1B
:101A7000B12CF02DD12CC12C23E02D831A82198298
:101A8000512C612CD0C10F2EF7ECEF2EF2E0FF2E7F
:101A9000F02D0FEF1FE030E020E048E26DE180E341
:101AA000860D0E94FF0A30E020E048E264E180E316
:101AB000850D0E94FF0A2FE030E048E268E283E5EE
:101AC00091E00E94B00B27E737E048E760E080ED47
:101AD00092E00E94540C188645C02885822F90E021
:101AE00030E1239F70011124982F88279C01207FCB
:101AF0003F703C832B838885880F880F4884480E6D
:101B0000890130E020E048E3642D82E70E949F0BCA
:101B100017013324810130E020E040E4642D87E6A2
:101B20000E949F0BF694E794F694E794F694E7945A
:101B3000F694E794870130E020E048E4642D82E6E3
:101B40000E949F0B8B819C8182299329082B192B42
:101B500030E020E040E5642D87E70E949F0B388548
:101B60003F5F38878885803108F4B7CF00E717E0FA
:101B700027E240E360E080E00E94C40AFEC0982DA6
:101B800091709B83412C27C081E02B8128272B83D8
:101B90002695269526952F833B813295330F307EEF
:101BA0003E838E819F81880F991F9C012051394F60
:101BB000790100EF12E020E240E2642D832D0E94C3
:101BC000790C30E2330E3320FCF681E09B819827BC
:101BD0009B8320E2420E442014F0312CF4CF3FEFDF
:101BE000831A930A462D652D8BE591E00E94EB0C3C
:101BF000C4C01F5F1123B4F11B829B819923CCF3D6
:101C00003B8120E2329FC001112488279F70412F21
:101C100050E0440F551F407F5527842B952B252DD1
:101C2000052C000C330BA901440F551F440F551F01
:101C3000420F531F440F551F460D511D67FC5A9507
:101C4000529542954F7045275F704527482B592B79
:101C5000612F8B810E94650C8B818F5F8B83CDCF31
:101C600010E0C8CF462D652D8CE691E00E94EB0C6C
:101C700084C02B81822F90E0880F991F8C010295E0
:101C80001295107F1027007F102700271F709C01DE
:101C9000207F3327022B132B929582958F708927F3
:101CA0009F708927082B192B21E040E86B8180E089
:101CB0000E94750A3B813F5F3B838B818823CCF672
:101CC000462D652D87E791E00E94EB0C56C01B82E4
:101CD000F4CF262D30E12302C0011124062D062C5D
:101CE000000C110B102F0027007F1F709927082B65
:101CF000192B252D30E12302C001112492958295E4
:101D00008F7089279F708927082B192B20E840E8BE
:101D100060E080E00E94750A462D652D88E891E01C
:101D20000E94EB0C2AC0952D990F990F950D892FC4
:101D3000880FF62C860D805E8B83E12C19C025E080
:101D4000420E3AE7341590F010E000E02FEF3FE04C
:101D50004E2D642D8B810E949F0B8B818F5F8B8317
:101D600088236CF790E29F0D9B83E9CF88E0E80E13
:101D7000EE201CF0412CE5CF65019FEFC91AD90A6E
:101D8000CA14DB04A0F0739426E1271508F4712C23
:101D9000872D90E0FC01EE0FFF1FE80FF91FE25FB7
:101DA000FE4F8081A180B280AC0CBD1C01C080E0E0
:101DB000639439E0361594F45394351574F499818D
:101DC0009F5F99839A30C4F02A812F5F2A832A303B
:101DD000B4F41982512C612C01C0612C882319F1B3
:101DE000ECE9E80FE73108F03FC00E2E000CFF0BC6
:101DF000EF54F04F0C94A60F512C612CEFCF1A82A8
:101E00001982512C612CEACF33E0398709C08D81CA
:101E10008F5F83708D838FEF9FE00E94B70A1986D2
:101E20008D810E941C0A3985373008F0A6CFE32F38
:101E3000330FFF0BE853F04F0C94A60F90E080E0B7
:101E40000E94B70A86E08987EBCF95E09987E8CFB3
:101E500021E02987E5CF90E080E00E94B70A912C2D
:101E6000812C32E03987DCCF8032D4F68987D8CF15
:101E700084E08987D5CFCF93C82F8A3051F09091D5
:101E8000C00095FFFCCFC093C60090E080E0CF91EA
:101E900008958DE00E943B0FF2CF0E94980990E0D8
:101EA00080E00E94B70A80E00E941C0A2FE785EBC1
:101EB00091E0215080409040E1F700C0000082E0B6
:101EC0000E941C0A2FE785EB91E021508040904052
:101ED000E1F700C0000080E00E941C0A2FE785EBBC
:101EE00091E0215080409040E1F700C0000082E086
:101EF0000E941C0A2FE785EB91E021508040904022
:101F0000E1F700C00000C2E3D0E000E010E01C16E2
:101F10001D06CCF44FE05FE060E0812F0E94650C6D
:101F20001F5F4FE050E0602F80E00E94650C0F5F64
:101F30002FEF80E792E0215080409040E1F700C011
:101F400000002197E4CF81E090E00895EE0FFF1F9D
:101F50000024001C0BBE0790F691E02D0994F89424
:101F6000FFCF280F340F380F250F340F340F340FE5
:101F7000340F340F340F340F340F040F340F070FA6
:101F8000340F1E0F340F340F340F340F340F2B0F58
:0E1F9000430DBF0DBC0E300E670E690E930E92
:101F9E0000000002000000003B0F00000000006483
:101FAE0000720100720100720100720100720100E4
:101FBE007201007201007201007201007201007262
:101FCE0001007201007201007201007201007201C3
:101FDE00007AB400646400666400676400700A00EE
:101FEE00741400494C4939313633004C43445F5325
:101FFE00686F77496D61676538282900536574509D
:10200E006978656C28290046696C6C526563742882
:10201E00292031323878310046696C6C5363726511
:06202E00656E2829000088
:00000001FF
